:020000040800F2
:10000000E8040020A1010008730300086F03000842
:1000100071030008E9010008E90A00080000000077
:1000200000000000000000000000000005050008BE
:100030002502000800000000DD030008D9070008C1
:10004000BB010008BB010008BB010008BB010008A0
:10005000BB010008BB010008BB010008BB01000890
:10006000BB010008BB010008BB010008BB01000880
:10007000BB010008BB010008BB010008BB01000870
:10008000BB010008BB010008BB010008BB01000860
:10009000BB010008BB010008BB010008BB01000850
:1000A000BB010008BB010008BB010008BB01000840
:1000B0008908000809090008BB010008BB01000805
:1000C000BB010008BB010008BB010008BB01000820
:1000D000BB0100086D0A0008BB010008BB01000855
:1000E00027020008BB010008BB010008BB01000893
:1000F000BB010008BB010008BB010008BB010008F0
:10010000BB010008BB010008BB010008BB010008DF
:10011000BB010008BB010008BB010008BB010008CF
:10012000BB010008BB010008BB010008BB010008BF
:10013000BB010008BB010008BB010008BB010008AF
:10014000BB010008BB010008BB010008BB0100089F
:10015000BB010008BB010008BB010008BB0100088F
:10016000BB010008BB010008BB010008BB0100087F
:10017000BB010008BB010008BB010008BB0100086F
:10018000BB010008BB010008DFF810D000F01AF82E
:1001900000480047A10B0008AFF30080E8040020EE
:1001A0000648804706480047FEE7FEE7FEE7FEE711
:1001B000FEE7FEE7FEE7FEE7FEE7FEE72D080008A4
:1001C00089010008064C074D06E0E06840F0010395
:1001D00094E8070098471034AC42F6D3FFF7D8FFF5
:1001E000DC0B0008FC0B0008FEE700001CB5012139
:1001F000084600F0F5F84FF40070009001208DF8EB
:10020000040000218DF806108DF8070002208DF8FB
:1002100005006946024800F061F800F0E7F91CBDEE
:1002200000000240704710B54FF48064204600F093
:1002300011F8002806D0204600F006F8BDE810406E
:1002400000F044B910BD000001490860704700008B
:10025000143C014001460020024A12680A4200D0C4
:1002600001207047143C014030B51B4A8379016876
:10027000002B2AD013688B431360111D0B68046890
:10028000A3430B60017911440B68046823430B609E
:10029000114C08342168036899432160231D1968B3
:1002A0000568A94319604179102905D011440A68ED
:1002B000006802430A6030BD216802681143216072
:1002C000196800680143196030BD00791044026864
:1002D0008A43026030BD0000003C01402DE9F0413E
:1002E000002201274FF0030C07FA02F50B682B40A0
:1002F000AB422CD1066853000CFA03F4A643066007
:100300000E79D0F800809E4046EA080606600E7915
:10031000012E01D0022E12D18668A64386604E7946
:10032000D0F808809E4046EA080686604668AE43DC
:10033000466045688E799640B6B235434560C568DB
:10034000A543C560CC799C40C3681C43C460521C63
:10035000102AC9D3BDE8F0810246002012690A4282
:1003600000D0012070474183704701837047FEE74A
:10037000FEE7704730B50F23C27801250178002AC7
:100380001FD0154A126802F4E062C2F5E062C2F3BF
:100390000722C2F10404D3404278A24084781C4072
:1003A0001443220101F1E02181F80024007800F0DB
:1003B0001F018D404009800000F1E020C0F800518D
:1003C00030BD01F01F0085404809800000F1E020A9
:1003D000C0F8805130BD00000CED00E07047000017
:1003E000054A002903D01168014311607047116864
:1003F000814311607047000030380240054A0029EF
:1004000003D0116801431160704711688143116086
:100410007047000040380240054A002903D01168A7
:1004200001431160704711688143116070470000FB
:100430004438024010B5074C3321204600F0CDFA75
:100440000021204600F0CBFA2046BDE810400121F3
:1004500000F0A1BA0004004010B5074C6721204607
:1004600000F0BBFA0021204600F0B9FA2046BDE8B2
:100470001040012100F08FBA000400400021014823
:1004800000F089BA0004004010B54FF0804400210C
:10049000204600F0A4FA2046BDE81040012100F0FB
:1004A0007ABA00214FF0804000F075BA4FF4007125
:1004B0000148FFF75ABF0000000002404FF40071EE
:1004C0000148FFF750BF00000000024010B50B4C80
:1004D000E078002810D14FF480610948FFF73CFF15
:1004E000002809D10120E07020700020A070607009
:1004F000BDE81040FFF79EBF10BD00001C000020AB
:10050000000002407047000010B58A07120F0F2349
:10051000934021F003040649214401F608010C68C8
:100520009C430C600B68904003430B6010BD0000BF
:10053000003001400CB50022019200922749086862
:1005400040F4803008604FF4A043086800F40030A5
:1005500000900198401C0190009810B901989842B1
:10056000F3D10868800302D50120009000E00092DA
:100570000098012831D119484030026842F0805279
:1005800002601748026842F4404202601348083093
:1005900002680260026842F400420260026842F4AB
:1005A000A0520260021F0F4B13600A6842F0807273
:1005B0000A600A689201FCD50B4A40F2057111608D
:1005C000016821F003010160016841F0020101604E
:1005D0000168C1F381010229FAD10CBD0038024043
:1005E0000070004019544007003C024070B586B0CE
:1005F00001210846FFF7F4FE01218803FFF70CFFF5
:100600004FF48066049600258DF8145001248DF86F
:10061000174004A90F48FFF761FE0A210020FFF7E9
:1006200073FF02968DF80C500C208DF80D008DF89C
:100630000E4002A8FFF718FE28208DF804008DF860
:1006400005408DF806508DF8074001A8FFF792FE8F
:1006500006B070BD0000024010B51A4CE0780028CA
:1006600012D02278012A0BD017484FF48061022A59
:100670000BD0032A08D1FFF76FFE012817D019E02D
:10068000FFF7EAFE0220207010BDFFF765FE28B1DB
:10069000A27860780121914008436070A078401CE6
:1006A000C0B2A0700828EFD30320207010BD60787E
:1006B00000F02EF80020E0702070BDE81040FFF739
:1006C000DDBE00001C0000200000024000B5034613
:1006D00000F012F808B1002000BD064AB2F842103E
:1006E000505C1870491C01F03F00A2F84200012044
:1006F00000BD0000A4000020044801884088814219
:1007000001D101207047002070470000E400002064
:1007100010B5074BB3F84020511C01F03F01B3F86E
:1007200042408C4202D09854A3F8401010BD000003
:10073000A400002010B50949CA78002A03D0BDE8FA
:10074000104000F019BA487001200870C870FFF717
:10075000ADFEBDE81040FFF797BE00001800002076
:1007600070B51C4CE07800281BD0217800260129A8
:1007700012D00125022915D0032912D1FFF796FEC8
:10078000E6702670601C00F0E1F9F0B12570E570AC
:10079000BDE87040FFF778BEFFF790FE02202070A2
:1007A000A67070BDA17860788D40284202D0FFF716
:1007B0007DFE01E0FFF782FEA078401CC1B2A1706F
:1007C0000829EED30320207070BDBDE87040FFF70C
:1007D00068BE00001800002003480168002902D00C
:1007E0000168491E01607047140000200D484FF455
:1007F0007A710068B0FBF1F0401EB0F1807F01D348
:1008000001200AE04FF0E0214861074AF020107013
:1008100000208861072008610020002800D0FEE742
:10082000704700000000002023ED00E010B51248E2
:10083000016841F4700101601048016841F0010154
:1008400001600E4A00210832116002680C4B1A4008
:100850000260031D0B4A1A60026822F480220260C3
:1008600006480C300160FFF765FE03494FF0006059
:100870008039086010BD000088ED00E000380240BB
:10088000FFFFF6FE1030002410B501218C07204632
:1008900000F08DF8002807D00121204600F078F8FC
:1008A000BDE81040FFF75CBF10BD1FB50446012135
:1008B0000846FFF7A3FD204600F0D2F85321ADF81B
:1008C00004100021ADF80610401E0290ADF80C1087
:1008D0008DF80E104FF0804401A9204600F082F8F8
:1008E00001221146204600F06EF81C208DF8000011
:1008F00001208DF801008DF802008DF80300684694
:10090000FFF738FD1FBD000010B5084C012120463F
:1009100000F04DF8002807D00121204600F038F8FB
:10092000BDE81040FFF798BE10BD00000004004075
:100930001FB5044601210220FFF760FD204600F0AC
:100940008FF85321ADF804100021ADF80610401EB9
:100950000290ADF80C108DF80E100C4C01A9204639
:1009600000F040F801221146204600F02CF81D202E
:100970008DF8000001208DF801008DF802008DF83F
:1009800003006846FFF7F6FC1FBD000000040040AE
:10099000C94301827047002904D0018841F0010158
:1009A00001807047018821F00101018070470246F3
:1009B0000020138A0B4092890A40002B02D0002AA3
:1009C00000D001207047002A03D082890A43828127
:1009D000704782898A4382817047C1627047416251
:1009E0007047000030B50288164C174DA0420DD05C
:1009F000A8420BD0B0F1804F08D0144B984205D0DC
:100A0000134B984202D0134B984203D122F070034B
:100A10004A881A43104B984206D0104B984203D094
:100A200022F440730A891A4302804A68C2620A8823
:100A30000285A04201D0A84201D1897A0186012114
:100A4000818230BD000001400004014000040040EC
:100A500000080040000C004000100040001400405E
:100A60000149B1FBF0F0704740420F0010B5094C4E
:100A700040F22551204600F00FF8002808D020460B
:100A800000F02AF8C1B22046BDE8104000F028B8B6
:100A900010BD00000010014070B5002440F66A123D
:100AA000C1F3421301F01F05012606FA05F2012BDE
:100AB0000CD0022B0DD0838A1340090A8E40008887
:100AC00030400BB100B10124204670BD8389134032
:100AD000F3E7038A1340F0E78088C0F3080070470B
:100AE000C1F3080181807047FEE702E008C8121FC9
:100AF00008C1002AFAD170477047002001E001C107
:100B0000121F002AFBD170470249086008680028BC
:100B1000FCD17047140000200448018840888142BD
:100B200001D101207047002070470000A000002084
:100B3000054801784088491C01F07F01814201D1BC
:100B40000120704700207047A000002010B5044627
:100B5000FFF7E2FF08B1002010BD064AB2F882108C
:100B6000505C2070491C01F07F00A2F88200012037
:100B700010BD00002000002010B50446FFF7D8FF8C
:100B8000002809D10549B1F880000C5411F8800FF4
:100B9000401C00F07F00088010BD000020000020F5
:100BA00008B5FFF723FEFFF721FB4FF4165420464C
:100BB000FFF77BFE2046FFF7BBFE4FF47A70FFF78E
:100BC000A3FF6846FFF782FD18B19DF80000FFF70C
:100BD000B1FD0A20FFF798FFF3E70000FC0B0008C7
:100BE0000000002020000000EA0A00081C0C000899
:100BF00020000020C8040000FA0A0008007A030A56
:100C000000000000000000000102030406070809BC
:0C0C1000000000000000000000000000D8
:040000050800018965
:00000001FF
